{
  "contractName": "EthKan",
  "abi": [
    {
      "constant": true,
      "inputs": [],
      "name": "cardCount",
      "outputs": [
        {
          "name": "",
          "type": "uint256"
        }
      ],
      "payable": false,
      "stateMutability": "view",
      "type": "function"
    },
    {
      "constant": true,
      "inputs": [],
      "name": "projectCount",
      "outputs": [
        {
          "name": "",
          "type": "uint256"
        }
      ],
      "payable": false,
      "stateMutability": "view",
      "type": "function"
    },
    {
      "anonymous": false,
      "inputs": [
        {
          "indexed": false,
          "name": "_projectId",
          "type": "uint256"
        },
        {
          "indexed": false,
          "name": "_owner",
          "type": "address"
        }
      ],
      "name": "NewProject",
      "type": "event"
    },
    {
      "anonymous": false,
      "inputs": [
        {
          "indexed": false,
          "name": "_cardId",
          "type": "uint256"
        },
        {
          "indexed": false,
          "name": "_projectId",
          "type": "uint256"
        },
        {
          "indexed": false,
          "name": "_owner",
          "type": "address"
        }
      ],
      "name": "NewCard",
      "type": "event"
    },
    {
      "anonymous": false,
      "inputs": [
        {
          "indexed": false,
          "name": "_cardId",
          "type": "uint256"
        },
        {
          "indexed": false,
          "name": "_projectId",
          "type": "uint256"
        },
        {
          "indexed": false,
          "name": "_claimer",
          "type": "address"
        }
      ],
      "name": "NewClaim",
      "type": "event"
    },
    {
      "anonymous": false,
      "inputs": [
        {
          "indexed": false,
          "name": "_cardId",
          "type": "uint256"
        },
        {
          "indexed": false,
          "name": "_projectId",
          "type": "uint256"
        },
        {
          "indexed": false,
          "name": "_amount",
          "type": "uint256"
        },
        {
          "indexed": false,
          "name": "_funder",
          "type": "address"
        }
      ],
      "name": "NewFunds",
      "type": "event"
    },
    {
      "anonymous": false,
      "inputs": [
        {
          "indexed": false,
          "name": "_cardId",
          "type": "uint256"
        },
        {
          "indexed": false,
          "name": "_projectId",
          "type": "uint256"
        },
        {
          "indexed": false,
          "name": "_funds",
          "type": "uint256"
        },
        {
          "indexed": false,
          "name": "_claimer",
          "type": "address"
        }
      ],
      "name": "NewApproval",
      "type": "event"
    },
    {
      "constant": false,
      "inputs": [
        {
          "name": "_tokenSymbol",
          "type": "string"
        }
      ],
      "name": "createProject",
      "outputs": [
        {
          "name": "",
          "type": "uint256"
        }
      ],
      "payable": false,
      "stateMutability": "nonpayable",
      "type": "function"
    },
    {
      "constant": false,
      "inputs": [
        {
          "name": "_tokenSymbol",
          "type": "string"
        }
      ],
      "name": "createCard",
      "outputs": [
        {
          "name": "",
          "type": "uint256"
        }
      ],
      "payable": false,
      "stateMutability": "nonpayable",
      "type": "function"
    },
    {
      "constant": false,
      "inputs": [
        {
          "name": "_cardId",
          "type": "uint256"
        }
      ],
      "name": "claimCard",
      "outputs": [],
      "payable": false,
      "stateMutability": "nonpayable",
      "type": "function"
    },
    {
      "constant": false,
      "inputs": [
        {
          "name": "_cardId",
          "type": "uint256"
        },
        {
          "name": "_amount",
          "type": "uint256"
        }
      ],
      "name": "fundCard",
      "outputs": [],
      "payable": false,
      "stateMutability": "nonpayable",
      "type": "function"
    },
    {
      "constant": false,
      "inputs": [
        {
          "name": "_cardId",
          "type": "uint256"
        }
      ],
      "name": "approveCard",
      "outputs": [],
      "payable": false,
      "stateMutability": "nonpayable",
      "type": "function"
    },
    {
      "constant": true,
      "inputs": [
        {
          "name": "_cardId",
          "type": "uint256"
        }
      ],
      "name": "cardInfo",
      "outputs": [
        {
          "name": "",
          "type": "uint256"
        },
        {
          "name": "",
          "type": "uint256"
        },
        {
          "name": "",
          "type": "address"
        },
        {
          "name": "",
          "type": "address"
        },
        {
          "name": "",
          "type": "string"
        }
      ],
      "payable": false,
      "stateMutability": "view",
      "type": "function"
    },
    {
      "constant": true,
      "inputs": [],
      "name": "myCards",
      "outputs": [
        {
          "name": "",
          "type": "uint256[]"
        }
      ],
      "payable": false,
      "stateMutability": "view",
      "type": "function"
    },
    {
      "constant": true,
      "inputs": [
        {
          "name": "_projectSymbol",
          "type": "string"
        }
      ],
      "name": "projectInfo",
      "outputs": [
        {
          "name": "",
          "type": "uint256[]"
        },
        {
          "name": "",
          "type": "address"
        }
      ],
      "payable": false,
      "stateMutability": "view",
      "type": "function"
    },
    {
      "constant": true,
      "inputs": [],
      "name": "myProjects",
      "outputs": [
        {
          "name": "",
          "type": "uint256[]"
        }
      ],
      "payable": false,
      "stateMutability": "view",
      "type": "function"
    }
  ],
  "bytecode": "0x608060405260008055600060035534801561001957600080fd5b506116c1806100296000396000f3006080604052600436106100af576000357c0100000000000000000000000000000000000000000000000000000000900463ffffffff16806315ee4df1146100b45780631b6cde101461013157806336fbad261461015c57806346a672bd146101875780635e753545146102045780637841fce9146102f55780638e3186451461032c578063966e412014610359578063a2ba2bb3146103c5578063acfb9d34146103f2578063f77843dd1461045e575b600080fd5b3480156100c057600080fd5b5061011b600480360381019080803590602001908201803590602001908080601f0160208091040260200160405190810160405280939291908181526020018383808284378201915050505050509192919290505050610578565b6040518082815260200191505060405180910390f35b34801561013d57600080fd5b506101466107ad565b6040518082815260200191505060405180910390f35b34801561016857600080fd5b506101716107b3565b6040518082815260200191505060405180910390f35b34801561019357600080fd5b506101ee600480360381019080803590602001908201803590602001908080601f01602080910402602001604051908101604052809392919081815260200183838082843782019150505050505091929192905050506107b9565b6040518082815260200191505060405180910390f35b34801561021057600080fd5b5061026b600480360381019080803590602001908201803590602001908080601f0160208091040260200160405190810160405280939291908181526020018383808284378201915050505050509192919290505050610c4c565b60405180806020018373ffffffffffffffffffffffffffffffffffffffff1673ffffffffffffffffffffffffffffffffffffffff168152602001828103825284818151815260200191508051906020019060200280838360005b838110156102e05780820151818401526020810190506102c5565b50505050905001935050505060405180910390f35b34801561030157600080fd5b5061032a6004803603810190808035906020019092919080359060200190929190505050610ddd565b005b34801561033857600080fd5b5061035760048036038101908080359060200190929190505050610f84565b005b34801561036557600080fd5b5061036e61115b565b6040518080602001828103825283818151815260200191508051906020019060200280838360005b838110156103b1578082015181840152602081019050610396565b505050509050019250505060405180910390f35b3480156103d157600080fd5b506103f0600480360381019080803590602001909291905050506111f0565b005b3480156103fe57600080fd5b50610407611367565b6040518080602001828103825283818151815260200191508051906020019060200280838360005b8381101561044a57808201518184015260208101905061042f565b505050509050019250505060405180910390f35b34801561046a57600080fd5b50610489600480360381019080803590602001909291905050506113fc565b604051808681526020018581526020018473ffffffffffffffffffffffffffffffffffffffff1673ffffffffffffffffffffffffffffffffffffffff1681526020018373ffffffffffffffffffffffffffffffffffffffff1673ffffffffffffffffffffffffffffffffffffffff16815260200180602001828103825283818151815260200191508051906020019080838360005b8381101561053957808201518184015260208101905061051e565b50505050905090810190601f1680156105665780820380516001836020036101000a031916815260200191505b50965050505050505060405180910390f35b6000806004836040518082805190602001908083835b6020831015156105b3578051825260208201915060208101905060208303925061058e565b6001836020036101000a0380198251168184511680821785525050505050509050019150509081526020016040518091039020541415156105f357600080fd5b6003600081548092919060010191905055506003546004836040518082805190602001908083835b602083101515610640578051825260208201915060208101905060208303925061061b565b6001836020036101000a0380198251168184511680821785525050505050509050019150509081526020016040518091039020819055503360066000600354815260200190815260200160002060006101000a81548173ffffffffffffffffffffffffffffffffffffffff021916908373ffffffffffffffffffffffffffffffffffffffff160217905550600560003373ffffffffffffffffffffffffffffffffffffffff1673ffffffffffffffffffffffffffffffffffffffff16815260200190815260200160002060035490806001815401808255809150509060018203906000526020600020016000909192909190915055507f4cd47a427b12b78ab498fbe3a9ff5dbad600a7c8580d6305a60c9d9cf78d3e3760035433604051808381526020018273ffffffffffffffffffffffffffffffffffffffff1673ffffffffffffffffffffffffffffffffffffffff1681526020019250505060405180910390a16003549050919050565b60005481565b60035481565b6000806004836040518082805190602001908083835b6020831015156107f457805182526020820191506020810190506020830392506107cf565b6001836020036101000a0380198251168184511680821785525050505050509050019150509081526020016040518091039020541415151561083557600080fd5b600080815480929190600101919050555060e06040519081016040528060011515815260200160005481526020016004846040518082805190602001908083835b60208310151561089b5780518252602082019150602081019050602083039250610876565b6001836020036101000a0380198251168184511680821785525050505050509050019150509081526020016040518091039020548152602001600081526020013373ffffffffffffffffffffffffffffffffffffffff168152602001600073ffffffffffffffffffffffffffffffffffffffff1681526020016040805190810160405280600881526020017f6465706c6f796564000000000000000000000000000000000000000000000000815250815250600160008054815260200190815260200160002060008201518160000160006101000a81548160ff02191690831515021790555060208201518160010155604082015181600201556060820151816003015560808201518160040160006101000a81548173ffffffffffffffffffffffffffffffffffffffff021916908373ffffffffffffffffffffffffffffffffffffffff16021790555060a08201518160050160006101000a81548173ffffffffffffffffffffffffffffffffffffffff021916908373ffffffffffffffffffffffffffffffffffffffff16021790555060c0820151816006019080519060200190610a49929190611570565b50905050600260003373ffffffffffffffffffffffffffffffffffffffff1673ffffffffffffffffffffffffffffffffffffffff1681526020019081526020016000206000549080600181540180825580915050906001820390600052602060002001600090919290919091505550600760006004846040518082805190602001908083835b602083101515610af45780518252602082019150602081019050602083039250610acf565b6001836020036101000a038019825116818451168082178552505050505050905001915050908152602001604051809103902054815260200190815260200160002060005490806001815401808255809150509060018203906000526020600020016000909192909190915055507f35089a93fd16f0702d75b57fa134aa1c22cbf08dbbd79b6896bd9a446a7fd1936000546004846040518082805190602001908083835b602083101515610bbe5780518252602082019150602081019050602083039250610b99565b6001836020036101000a03801982511681845116808217855250505050505090500191505090815260200160405180910390205433604051808481526020018381526020018273ffffffffffffffffffffffffffffffffffffffff1673ffffffffffffffffffffffffffffffffffffffff168152602001935050505060405180910390a16000549050919050565b606060008060006004856040518082805190602001908083835b602083101515610c8b5780518252602082019150602081019050602083039250610c66565b6001836020036101000a03801982511681845116808217855250505050505090500191505090815260200160405180910390205414151515610ccc57600080fd5b6004846040518082805190602001908083835b602083101515610d045780518252602082019150602081019050602083039250610cdf565b6001836020036101000a0380198251168184511680821785525050505050509050019150509081526020016040518091039020549050600760008281526020019081526020016000206006600083815260200190815260200160002060009054906101000a900473ffffffffffffffffffffffffffffffffffffffff1681805480602002602001604051908101604052809291908181526020018280548015610dcc57602002820191906000526020600020905b815481526020019060010190808311610db8575b505050505091509250925050915091565b6000600115156001600085815260200190815260200160002060000160009054906101000a900460ff161515141515610e1557600080fd5b60016000848152602001908152602001600020905060405180807f617070726f7665640000000000000000000000000000000000000000000000008152506008019050604051809103902060001916816006016040518082805460018160011615610100020316600290048015610ec35780601f10610ea1576101008083540402835291820191610ec3565b820191906000526020600020905b815481529060010190602001808311610eaf575b505091505060405180910390206000191614151515610ee157600080fd5b610ef882826003015461155290919063ffffffff16565b81600301819055507f6862ef5e8cb1b3dd7e320e0409e391183de3484117ef436828a83f54a6e857228382600201548433604051808581526020018481526020018381526020018273ffffffffffffffffffffffffffffffffffffffff1673ffffffffffffffffffffffffffffffffffffffff16815260200194505050505060405180910390a1505050565b600080600115156001600085815260200190815260200160002060000160009054906101000a900460ff161515141515610fbd57600080fd5b3373ffffffffffffffffffffffffffffffffffffffff166001600085815260200190815260200160002060040160009054906101000a900473ffffffffffffffffffffffffffffffffffffffff1673ffffffffffffffffffffffffffffffffffffffff1614151561102d57600080fd5b60016000848152602001908152602001600020600301549150600160008481526020019081526020016000209050600081600301819055506040805190810160405280600881526020017f617070726f7665640000000000000000000000000000000000000000000000008152508160060190805190602001906110b29291906115f0565b507fde6544ceff4337d3996780a4e4c99708549e359a4817b164c3a24e7435610162838260020154848460050160009054906101000a900473ffffffffffffffffffffffffffffffffffffffff16604051808581526020018481526020018381526020018273ffffffffffffffffffffffffffffffffffffffff1673ffffffffffffffffffffffffffffffffffffffff16815260200194505050505060405180910390a1505050565b6060600560003373ffffffffffffffffffffffffffffffffffffffff1673ffffffffffffffffffffffffffffffffffffffff1681526020019081526020016000208054806020026020016040519081016040528092919081815260200182805480156111e657602002820191906000526020600020905b8154815260200190600101908083116111d2575b5050505050905090565b600115156001600083815260200190815260200160002060000160009054906101000a900460ff16151514151561122657600080fd5b336001600083815260200190815260200160002060050160006101000a81548173ffffffffffffffffffffffffffffffffffffffff021916908373ffffffffffffffffffffffffffffffffffffffff1602179055506040805190810160405280600781526020017f636c61696d6564000000000000000000000000000000000000000000000000008152506001600083815260200190815260200160002060060190805190602001906112da9291906115f0565b507fa07e89a629bb26fc38713f74b4347816da766639cd7f7a94282983d5747fbe5681600160008481526020019081526020016000206002015433604051808481526020018381526020018273ffffffffffffffffffffffffffffffffffffffff1673ffffffffffffffffffffffffffffffffffffffff168152602001935050505060405180910390a150565b6060600260003373ffffffffffffffffffffffffffffffffffffffff1673ffffffffffffffffffffffffffffffffffffffff1681526020019081526020016000208054806020026020016040519081016040528092919081815260200182805480156113f257602002820191906000526020600020905b8154815260200190600101908083116113de575b5050505050905090565b600080600080606060006001600088815260200190815260200160002060000160009054906101000a900460ff16151561143557600080fd5b600160008881526020019081526020016000209050806002015481600301548260040160009054906101000a900473ffffffffffffffffffffffffffffffffffffffff168360050160009054906101000a900473ffffffffffffffffffffffffffffffffffffffff1684600601808054600181600116156101000203166002900480601f0160208091040260200160405190810160405280929190818152602001828054600181600116156101000203166002900480156115375780601f1061150c57610100808354040283529160200191611537565b820191906000526020600020905b81548152906001019060200180831161151a57829003601f168201915b50505050509050955095509550955095505091939590929450565b600080828401905083811015151561156657fe5b8091505092915050565b828054600181600116156101000203166002900490600052602060002090601f016020900481019282601f106115b157805160ff19168380011785556115df565b828001600101855582156115df579182015b828111156115de5782518255916020019190600101906115c3565b5b5090506115ec9190611670565b5090565b828054600181600116156101000203166002900490600052602060002090601f016020900481019282601f1061163157805160ff191683800117855561165f565b8280016001018555821561165f579182015b8281111561165e578251825591602001919060010190611643565b5b50905061166c9190611670565b5090565b61169291905b8082111561168e576000816000905550600101611676565b5090565b905600a165627a7a72305820862cbd5d94d83b52f99b6f3e0019cce673ccd0bb2b8fcba6294a7014006eb0740029",
  "source": "pragma solidity ^0.4.17;\n\nimport \"./safemath.sol\";\n\n// This is an experimental work in progres\n\ncontract EthKan {\n\n    using SafeMath for uint256;\n\n    event NewProject(uint _projectId, address _owner);\n    event NewCard(uint _cardId, uint _projectId, address _owner);\n    event NewClaim(uint _cardId, uint _projectId, address _claimer);\n    event NewFunds(uint _cardId, uint _projectId, uint _amount, address _funder);\n    event NewApproval(uint _cardId, uint _projectId, uint _funds, address _claimer);\n\n    struct Card {\n        bool exists;\n        uint id;\n        uint projectId;\n        uint balance;\n        address owner;\n        address claimedBy;\n        string status;\n    }\n  \n    uint public cardCount = 0;\n    mapping (uint => Card) private cards;\n    mapping (address => uint[]) private ownerToCards;\n\n    uint public projectCount = 0;\n    mapping (string => uint) private projects;\n    mapping (address => uint[]) private ownerToProjects;\n\n    mapping (uint => address) private projectToOwner;\n    mapping (uint => uint[]) private projectToCards;\n\n    function createProject(string _tokenSymbol) public returns (uint) {\n        require(projects[_tokenSymbol] == 0);\n        projectCount++;\n        projects[_tokenSymbol] = projectCount;\n        projectToOwner[projectCount] = msg.sender;\n        ownerToProjects[msg.sender].push(projectCount);\n        NewProject(projectCount, msg.sender);\n        return projectCount;\n    }\n\n    function createCard(string _tokenSymbol) public returns (uint) {\n        require(projects[_tokenSymbol] != 0);\n        cardCount++;\n        cards[cardCount] = Card(\n            true, \n            cardCount, \n            projects[_tokenSymbol], \n            0, \n            msg.sender, \n            address(0x0), \n            \"deployed\"\n        );\n        ownerToCards[msg.sender].push(cardCount);\n        projectToCards[projects[_tokenSymbol]].push(cardCount);\n        NewCard(cardCount, projects[_tokenSymbol], msg.sender);\n        return cardCount;\n    }\n\n    function claimCard(uint _cardId) public {\n        require(cards[_cardId].exists == true);\n        cards[_cardId].claimedBy = msg.sender;\n        cards[_cardId].status = \"claimed\";\n        NewClaim(_cardId, cards[_cardId].projectId, msg.sender);\n    }\n\n    function fundCard(uint _cardId, uint _amount) public {\n        require(cards[_cardId].exists == true);\n        Card c = cards[_cardId];\n        require(keccak256(c.status) != keccak256(\"approved\"));\n        c.balance = c.balance.add(_amount);\n        NewFunds(_cardId, c.projectId, _amount, msg.sender);\n    }\n\n    function approveCard(uint _cardId) public {\n        require(cards[_cardId].exists == true);\n        require(cards[_cardId].owner == msg.sender);\n        uint _funds = cards[_cardId].balance;\n        Card c = cards[_cardId];\n        c.balance = 0;\n        c.status = \"approved\";\n        NewApproval(_cardId, c.projectId, _funds, c.claimedBy);\n    }\n    \n    function cardInfo(uint _cardId) public view returns (uint, uint, address, address, string) {\n        require(cards[_cardId].exists);\n        Card c = cards[_cardId];\n        return (c.projectId, c.balance, c.owner, c.claimedBy, c.status);\n    }\n\n    function myCards() public view returns (uint[]) {\n        return ownerToCards[msg.sender];\n    }\n    \n    function projectInfo(string _projectSymbol) public view returns (uint[], address) {\n        require(projects[_projectSymbol] != 0);\n        uint projectId = projects[_projectSymbol];\n        return (projectToCards[projectId], projectToOwner[projectId]);\n    }\n\n    function myProjects() public view returns (uint[]) {\n        return ownerToProjects[msg.sender];\n    }\n}",
  "sourcePath": "/Users/oj/Documents/git/ethkan-contracts/contracts/EthKan.sol",
  "compiler": {
    "name": "solc",
    "version": "0.4.24+commit.e67f0147.Emscripten.clang"
  },
  "schemaVersion": "2.0.0",
  "updatedAt": "2018-05-28T20:12:25.310Z"
}